:1000000032C00000FDCF0000FBCF0000F9CF0000A0
:1000100037C00000F5CF0000F3CF0000F1CF0000A3
:10002000EFCF000028C00000EBCF0000E9CF0000B8
:10003000E7CF0000E5CF0000E3CF0000E1CF0000F4
:1000400015C00000DDCF0000DBCF0000D9CF0000DD
:10005000D7CF0000D5CF0000D3CF0000D1CF000014
:06006000CFCF0000CDCF60
:10006600EDEFF2E10994EF93FF93E5E2F5E10994F0
:10007600EF93FF93EEE7F1E10994EF93FF93EBE73C
:04008600F2E1099406
:1025FA00BFEFBDBFB8E0BEBFF5D32F923F924F9257
:10260A005F9210E0BFEFB4B9B0E0B5B9B5B1B0624E
:10261A00B5B9B0E0B7B9B3E4B8B9B0E0BAB9BFEF89
:10262A00BBB9E5E6FAE009951F93E2E7FAE00995F6
:10263A00B1E02B2E70D9BCE02B2E6DD9B8E04B2E11
:10264A00B1E03B2EB1E02B2E1EDE1F91BFB7BF7744
:10265A00BFBFB0916800B260B0936800BFEFB0939B
:10266A006C00B5E0B5BDB0916E00B160B0936E007C
:10267A00B4E0B093B100B0917000B160B093700053
:10268A001131B8F4012F0F5F102F1F93BAE84B2EA8
:10269A00B1E05B2E302EB2E02B2E65D825E01FE08C
:1026AA0002EF0A95F1F71A95E1F72A95D1F71F91EA
:1026BA00E7CFB0E22B2EB0E03B2EE8E3FAE0099533
:1026CA000F3F91F5B2E04B2EB1E22B2EB0E03B2E3C
:1026DA001BD825E01FE002EF0A95F1F71A95E1F7FA
:1026EA002A95D1F7BAE54B2EB2E22B2EB0E03B2E5B
:1026FA000BD825E01FE002EF0A95F1F71A95E1F7EA
:10270A002A95D1F7B7ED4B2EB0E22B2EB0E03B2E37
:10271A00E9E8FBE0099525E01FE002EF0A95F1F7E9
:10272A001A95E1F72A95D1F7BEE12B2EB0E03B2EA0
:10273A00E8E3FAE0099500933A0110EF101748F41C
:10274A00B4E64B2EBEE12B2EB0E03B2EE9E8FBE0CF
:10275A000995BFE12B2EB0E03B2EE8E3FAE009959C
:10276A0000933A0110EF101748F4B0EF4B2EBFE177
:10277A002B2EB0E03B2EE9E8FBE00995B1E02B2EC9
:10278A00CAD8B2E32B2EB0E03B2EE8E3FAE0099573
:10279A0000933A0122D9B8ECB093D402B5B1BF7D07
:1027AA00B5B928D8B0E0B0930401B0930501B0E000
:1027BA00B093E401B093E501B5B1B860B5B9B5B16C
:1027CA00BF7EB5B9BFB7B068BFBFE3EBF8E0099504
:1027DA00B9B1B0FD18C10091A702002309F013C1D5
:1027EA00B5E0B0933101B0E0B093D402B9B1B0FD15
:1027FA0008C00091D402043620F4B5B1B062B5B96C
:10280A00F5CF0091D402043608F434C000913A019D
:10281A00009500933A01002301F040903A01B2E397
:10282A002B2EB0E03B2EE9E8FBE0099500913A0136
:10283A00002389F0BCE84B2EB1E05B2EB1E03B2EC1
:10284A00B2E02B2EE8EBFBE00995B0913201BD7F97
:10285A00B09332010EC0B9E14B2EB2E05B2EB1E06B
:10286A003B2EB2E02B2EE8EBFBE00995B0E0B093EB
:10287A003301B0C00091D402053008F490C0009131
:10288A003A01002309F08BC0B5B1B3FD19C000911C
:10289A002A020023A9F4B1E0B0932A02B5B1B860C4
:1028AA00B5B9B5B1BF7EB5B9B8E04B2EB2E05B2E73
:1028BA00B1E03B2EB2E02B2EE8EBFBE009956EC0AF
:1028CA00B5B1B3FF1CC0B5B1B4FD19C000912A025D
:1028DA000130A9F4B0E0B0932A02B5B1B860B5B935
:1028EA00B5B1B061B5B9B6EE4B2EB1E05B2EB1E031
:1028FA003B2EB2E02B2EE8EBFBE009954FC0B5B1B9
:10290A00B4FF19C000912A020023A9F4B2E0B093DF
:10291A002A02B5B1B860B5B9B5B1BF7EB5B9B7EFDE
:10292A004B2EB1E05B2EB1E03B2EB2E02B2EE8EB52
:10293A00FBE0099533C0B5B1B3FF1CC0B5B1B4FD16
:10294A0019C000912A020230A9F4B0E0B0932A0219
:10295A00B5B1BF7EB5B9B5B1B77FB5B9B9E74B2E39
:10296A00B1E05B2EB1E03B2EB2E02B2EE8EBFBE0B0
:10297A00099514C0B0E0B0932A02B5B1BF7EB5B9CB
:10298A00B5B1B77FB5B9BCE44B2EB1E05B2EB1E06F
:10299A003B2EB2E02B2EE8EBFBE009951BC0009121
:1029AA003A01002361F0BDE54B2EB1E05B2EB1E0A8
:1029BA003B2EB2E02B2EE8EBFBE009950BC0BBE304
:1029CA004B2EB1E05B2EB1E03B2EB2E02B2EE8EBB2
:1029DA00FBE00995B0913201BD7FB0933201B9B1E4
:1029EA00B0FD01C0FCCF22E51BE200E00A95F1F739
:1029FA001A95E1F72A95D1F70000000000000000BF
:102A0A00B0E0B093310100913A01002351F00091F6
:102A1A00A702002331F4B3E02B2EE9E8F7E0099589
:102A2A0007C00091A702002319F4E2EFFCE0099520
:0C2A3A00C9CE5F904F903F902F90FFCFCF
:1014CA00BEE4B093D502B1E0B093D602B7E8B093C8
:0A14DA007A00B0E0B0937C000895A2
:1014E400B0912B00BF7EB0932B00B0912B00B77F3F
:1014F400B0932B00B0912500BE7FB0932500B0912E
:101504002B00BF77B0932B00B0912B00BF7BB0931F
:101514002B00B0912B00BF7DB0932B00B0912A001B
:10152400B061B0932A00B0912A00B860B0932A0049
:10153400B0912A00B062B0932A00B0912A00B0643E
:10154400B0932A00B0912A00B068B0932A00B091F9
:101554002400B160B093240068DC67DC66DCB091E1
:101564002B00B064B0932B00B0912B00B062B09309
:101574002B00B0912B00B061B0932B005FDCB091D5
:101584002B00BF7EB0932B0050DCB0912B00B061D8
:10159400B0932B0053DCB0912B00BF7EB0932B0093
:1015A40044DCB0912B00B061B0932B0047DCB091C8
:1015B4002B00BF7EB0932B0038DCB0912B00BF7D95
:1015C400B0932B00B0912B00B061B0932B0036DCAC
:1015D400B0912B00BF7EB0932B0027DCB0912B0081
:1015E400B061B0932B002ADCB0912B00BF7EB09386
:1015F4002B00B0912B00BF7BB0932B00B091250042
:10160400B160B0932500B0912B00B061B0932B0072
:1016140015DCB0912B00BF7EB0932B0006DCB0919B
:101624002500BE7FB0932500B0912B00B062B0932B
:101634002B00B0912B00B061B0932B00FFDBB09175
:101644002B00BF7EB0932B00B0912B00BF7DB093D5
:101654002B00B0912B00B061B0932B00EFDBB09165
:101664002B00BF7EB0932B00E0DBB0912B00B06168
:10167400B0932B00E3DBB0912B00BF7EB0932B0023
:10168400B0912B00B062B0932B00B0912B00B061ED
:10169400B0932B00D3DBB0912B00BF7EB0932B0013
:1016A400C4DBB0912B00BF7DB0932B00B0912B0015
:1016B400B061B0932B00C2DBB0912B00BF7EB0931E
:1016C4002B00B0912500B160B0932500B0912B00A0
:1016D400B068B0932B00B0912B00B064B0932B0092
:1016E400B0912B00B062B0932B00B0912B00B0618D
:1016F400B0932B00A3DBB0912B00BF7EB0932B00E3
:0E17040094DBB091D702B160B093D702089584
:100E2E001AE303E20A95F1F71A95E1F700000000C4
:020E3E00089515
:0C0E400002E00A95F1F7000000000895A0
:1019200027FAB0912500B0F9B093250026FAB091BE
:101930002B00B7F9B0932B0025FAB0912B00B6F924
:10194000B0932B0024FAB0912B00B5F9B0932B0083
:10195000B091D70200902B00E894B0FF689403F890
:1019600000922B00B0912B00B061B0932B0068DA8D
:10197000B0912B00BF7EB0932B0023FAB0912500CD
:10198000B0F9B093250022FAB0912B00B7F9B093CB
:101990002B0021FAB0912B00B6F9B0932B0020FA5E
:1019A000B0912B00B5F9B0932B00B091D702009005
:1019B0002B00E894B0FF689403F800922B00B091DC
:1019C0002B00B061B0932B003BDAB0912B00BF7EAF
:1019D000B0932B00B091D702B0FF02C028DA01C04B
:0419E00021DA08956B
:0A0E240005E80A95F1F700000895B3
:1022900040E0242D30E0220F331F0DE911E0F90159
:1022A000E00FF11F01911191E42FF0E0E00FF11F19
:1022B0000491003011F1242D30E0220F331F0DE97D
:1022C00011E0F901E00FF11F01911191E42FF0E00D
:1022D000E00FF11F04914F922F92402EEFECF6E0A9
:1022E00009952F904F90B0E13B1618F4032D0F5F26
:0C22F000302E042F0F5F402FCCCF08953C
:100D9E002F920FC0B0E82B2E19C0B0EC2B2E16C020
:100DAE00B4E92B2E13C0B4ED2B2E10C0B0E82B2EB1
:100DBE000DC0B1E02B1671F3B2E02B1671F3B3E058
:100DCE002B1671F3B4E02B1671F3F0CF032D0150F7
:100DDE00020D202EB091D702B160B093D702202E13
:100DEE0098D5B091D702BE7FB093D702242C91D55F
:0E0DFE00B091D702B160B093D7022F90089544
:101770002F920FC0B0E82B2E19C0B0EC2B2E16C044
:10178000B4E92B2E13C0B4ED2B2E10C0B0E82B2ED5
:101790000DC0B1E02B1671F3B2E02B1671F3B3E07C
:1017A0002B1671F3B4E02B1671F3F0CF032D01501B
:1017B000020D202E202EB4D0B091D702BE7FB09360
:1017C000D70210E0E12FF0E0E40DF51D00810023C9
:1017D00079F0E12FF0E0E40DF51D00811F932F92C9
:1017E000202E14DB2F901F91012F0F5F102FEACFB7
:0E17F000B091D702B160B093D7022F90089548
:100E0C00B091D702BE7FB093D70284D5B091D702F0
:080E1C00B160B093D702089504
:10147000CF93DF93CDB7DEB72297CDBFDEBF2196E6
:10148000288239820FB6BFB3B1FF01C0FCCFF894F8
:101490001C2F2D2FE12FF22F3196008102BDE12F5D
:1014A000F22F008101BDBFB3B160BFBB0FBE00B55D
:0C14B0002196CDBFDEBFDF91CF910895E3
:10171200CF93DF93CDB7DEB72297CDBFDEBF219641
:10172200288239820FB6BFB3B1FF01C0FCCFF89453
:10173200BFB3BF7EBFBBBFB3BF7DBFBB1C2F2D2FAF
:10174200E12FF22F3196008102BDE12FF22F0081AD
:1017520001BD40BCBFB3B460BFBBBFB3B260BFBBCF
:0E1762000FBE2196CDBFDEBFDF91CF9108955F
:1019E400CF93DF93CDB7DEB7A097CDBFDEBF2196EF
:1019F4002F923F924F925F92B5E02B2E25DA0093FF
:101A04008E0210938F02B0E0B0939002B0939102D3
:101A1400B4E02B2E19DA00938A0210938B02B0E003
:101A2400B0938C02B0938D02B2E02B2E0DDA0093AA
:101A3400350110933601B0E0B0933701B09338010B
:101A4400B3E02B2E01DA00932D0110932E01B0E0A8
:101A5400B0932F01B0933001B1E22B2EB0E03B2EB6
:101A640005DD402F50E0652F752F362F252F142FBD
:101A74000027A801B901B2E22B2EB0E03B2EF6DC20
:101A840010E0212F312F040F151F261F371FA80127
:101A9400B9018E01015F1F4F0E8F1F8FB0E22B2EF5
:101AA400B0E03B2EE3DC1E8D2F8DE12FF22F00835F
:101AB4008E01015F1F4F0E8F1F8FF80100817F93EE
:101AC4006F935F934F9310E0212F312F40918E023B
:101AD40050918F02609190027091910220D84F91A1
:101AE4005F916F917F9100938E0210938F022093E8
:101AF4009002309391027F936F935F934F9323D916
:101B04008B019C0100938E0210938F02209390020C
:101B140030939102EE8DFF8D008110E0212F312F43
:101B240040918A0250918B0260918C0270918D02D7
:101B3400E1E9F5E009954F915F916F917F910093F1
:101B44008A0210938B0220938C0230938D027F9330
:101B54006F935F934F93F7D88B019C0100938A0294
:101B640010938B0220938C0230938D02EE8DFF8DA7
:101B7400008110E0212F312F409135015091360121
:101B84006091370170913801E1E9F5E009954F91D1
:101B94005F916F917F9100933501109336012093EB
:101BA4003701309338017F936F935F934F93CBD872
:101BB4008B019C010093350110933601209337016A
:101BC40030933801EE8DFF8D008110E0212F312FED
:101BD40040912D0150912E0160912F01709130019F
:101BE400E1E9F5E009954F915F916F917F91009341
:101BF4002D0110932E0120932F0130933001A3D88F
:101C04008B019C0100932D0110932E0120932F0131
:101C1400309330011091060100910701101709F467
:101C240084C00091040110910501133609F40C39A4
:101C340049F00091040110910501103009F40030BD
:101C440009F073C01091330105E0011708F06DC06D
:101C5400B5B1B3FF0BC0B5B1B4FD08C0B3E14B2EB1
:101C6400B1E03B2EB2E02B2E11D35BC0B5B1B3FD76
:101C74002BC0B5B1B4FD28C0B7E14B2EB8E03B2E64
:101C8400B2E02B2E03D300913A01002341F0B9E1D5
:101C94004B2EB1E03B2EB2E02B2EF8D207C0BAE1B6
:101CA4004B2EB1E03B2EB2E02B2EF0D2B0910701C7
:101CB400B1FF09C0B0E04B2EB1E05B2EB7E03B2E84
:101CC400B2E02B2E53DD2DC0B5B1B3FF2AC0B5B1A0
:101CD400B4FF27C0B8E14B2EB8E03B2EB2E02B2E68
:101CE400D5D200913A01002341F0B9E14B2EB1E085
:101CF4003B2EB2E02B2ECAD207C0BAE14B2EB1E084
:101D04003B2EB2E02B2EC2D2B0910701B1FF09C025
:101D1400B2E04B2EB1E05B2EB7E03B2EB2E02B2EAF
:101D240025DD0091070100930601009107010030B1
:101D340059F4B9E04B2EB1E03B2EB1E02B2EA6D2E4
:101D4400B1E0B09307019EC000910701033009F090
:101D540068C0B0E24B2EB1E05B2EB1E03B2EB1E0A7
:101D64002B2E04DD40918A0250918B0260918C02EB
:101D740070918D0200913501109136012091370147
:101D840030913801400F511F621F731F00912D01C4
:101D940010912E0120912F0130913001040F151F55
:101DA400261F371F43E050E060E070E0E5EAF6E00C
:101DB40009958B019C01AE01415F5F4F2A01180117
:101DC40046D88E01015F1F4F1801E8E0F5E0099540
:101DD4002801B9E03B2EB1E02B2EC8DC8E01015F57
:101DE4001F4F280120902C01B0E03B2E30D8BAE1DF
:101DF4004B2EB1E05B2EBCE03B2EB1E02B2EB6DCCB
:101E04008E01015F1F4F1801E8E0F5E009952801F4
:101E1400BDE03B2EB1E02B2EA9DCB4E0B09307016A
:101E240031C000910701073069F5B8E04B2EB1E0ED
:101E34005B2EB1E03B2EB1E02B2E98DC8E01015FCE
:101E44001F4F280120908E0230908F02E9E2F7E0C4
:101E540009958E01015F1F4F1801E8E0F5E009952F
:101E64002801BAE03B2EB1E02B2E80DCB5E14B2EED
:101E7400B1E05B2EBDE03B2EB1E02B2E77DCB8E069
:101E8400B09307018E01015F1F4F0E8F1F8FBEE1BC
:101E94002B2EB0E03B2EEADA1E8D2F8DE12FF22F90
:101EA40000838E01015F1F4F0F5F1F4F0E8F1F8F27
:101EB400BFE12B2EB0E03B2ED9DA1E8D2F8DE12F02
:101EC400F22F00838E01015F1F4FF8013296B0E0BC
:101ED400B0838E01015F1F4FF8013396B0E0B083E9
:101EE400FE013F9610810AE0109FA00100918A0232
:101EF40010918B0220918C0230918D0204171507EA
:101F0400B0E057FDBFEF2B073B0708F47DC0FE018F
:101F14003F9610810AE0109FA001009135011091B5
:101F24003601209137013091380104171507B0E0CC
:101F340057FDBFEF2B073B0708F466C0FE013F9631
:101F440010810AE0109FA00100912D0110912E0133
:101F540020912F013091300104171507B0E057FD8F
:101F6400BFEF2B073B0708F44FC08E01015F1F4FE3
:101F7400F801319610810AE0109F800140918A0295
:101F840050918B0260918C0270918D0220E017FDBC
:101F94002FEF322F0417150726073707A8F18E01F4
:101FA400015F1F4FF801319610810AE0109F8001F4
:101FB400409135015091360160913701709138019B
:101FC40020E017FD2FEF322F0417150726073707D8
:101FD400D8F08E01015F1F4FF801319610810AE09D
:101FE400109F800140912D0150912E0160912F018D
:101FF4007091300120E017FD2FEF322F04171507E1
:102004002607370708F07FC00091040110910501ED
:10201400133609F40C3951F5B3E22B2EB0E03B2E04
:1020240025DA14E6019F8001009304011093050151
:10203400133609F40C39D1F4B4E1B0930401B0E0DF
:10204400B0930501B4E14B2EB3E22B2EB0E03B2E4E
:102054005EDB009104011091050144E150E0E7ECDE
:10206400F6E0099500930401109305018E01015FC8
:102074001F4FF80132960091040100838E01015F25
:102084001F4FF801329600810090320107FA07FDD4
:1020940002C016F402C0F6F72EC01091330105E019
:1020A400011748F58E01015F1F4FF8013296008138
:1020B40007FBB0913201B7F9B09332018E012801C8
:1020C4002090040130900501E9E2F7E00995B3EDB1
:1020D4004B2EB1E05B2EB1E03B2EB2E02B2E46DB63
:1020E4008E011801E8E0F5E009952801BCE03B2EDB
:1020F400B2E02B2E3BDB8E01015F1F4FF8013296BD
:10210400BFEFB08306C0BCE9B0930401B3E6B0935B
:102114000501FE013F9610810AE0109FA001009185
:102124008E0210918F022091900230919102041737
:102134001507B0E057FDBFEF2B073B07D8F08E0122
:10214400015F1F4FF801319610810AE0109F800152
:1021540040918E0250918F02609190027091910291
:1021640020E017FD2FEF322F041715072607370736
:1021740008F039C08E01015F1F4FF8013396BFEF9D
:10218400B0830091E4011091E501133609F40C3990
:1021940049F5B3E22B2EB0E03B2E68D914E6019F3B
:1021A40080010093E4011093E501133609F40C391E
:1021B40069F4B0EDB093E401B7E0B093E501B0ED9C
:1021C4004B2EB3E22B2EB0E03B2EA1DA0091E401BA
:1021D4001091E50116950795169507950093E4016E
:1021E4001093E50106C0BCE9B093E401B3E6B093F3
:1021F400E5018E01015F1F4FF80132960081002333
:10220400C1F08E01015F1F4FF80133960081002356
:1022140081F00091040110910501B02FB12B49F414
:102224000091E4011091E501B02FB12B11F400E00D
:1022340023C08E01015F1F4FF801329600810023F5
:1022440049F00091040110910501B02FB12B11F454
:1022540001E012C08E01015F1F4FF8013396008127
:10226400002349F00091E4011091E501B02FB12B56
:1022740011F402E001C00FEF5F904F903F902F9058
:0C2284006F96CDBFDEBFDF91CF910895B3
:060E4C003ED326DA0895F2
:10029C0000917C00007E022900937C00B0917A00D2
:1002AC00B064B0937A00B0917A00B6FF01C0FBCF76
:1002BC002091780030E000917900102F0027022B5C
:0402CC00132B089553
:100E5200CF93DF93CDB7DEB72497CDBFDEBF219608
:100E62002F923F92B0E0B883B9832A823B8200E09E
:100E720010E02016310654F4B1E0B883B0E0B98333
:100E820000E010E0021913090A831B832A803B80C9
:100E9200C0D966E070E0AB0100E010E0041715076E
:100EA20090F49A01240D351D8A0101501040F80179
:100EB200E40DF51D0081F90100838A010150104003
:100EC200B801AB01E9CFF201B0E2B0830881198128
:100ED200B02FB12BA9F020E030E0F901E40DF51DAF
:100EE2000081003229F489010F5F1F4F9801F5CF6D
:100EF200890101501040F801E40DF51DBDE2B083F7
:100F02003F902F902396CDBFDEBFDF91CF91089502
:000F1200DF
:10021400CF93DF93CDB7DEB72297CDBFDEBF219654
:1002240010E0153050F4E12FF0E0E40DF51DB0E2DC
:10023400B083012F0F5F102FF4CFE12FF0E0E40D16
:10024400F51DB0E0B083012F0150302F032F10E0D3
:10025400040D151D088319834AE050E081019FDFD6
:100264008D01202F205D08811981F80120834AE047
:1002740050E0810194DF8C011801103009F4003042
:1002840009F404C0032F0150302FE0CF2196CDBFD5
:08029400DEBFDF91CF91089558
:1001A200C801BA01AA1BBB1B51E107C0AA1FBB1F92
:1001B200A617B70710F0A61BB70B881F991F5A95F1
:0801C200A9F7809590950895BE
:100A100060E070E09101A10100C0F90100810032A5
:100A200021F4B62FB72B09F40AC061E070E0F90198
:100A30000081FA0100838A010F5F1F4FA801F901AD
:100A400089010F5F1F4F98010081003031F781014C
:020A5000089507
:100B2200049FD001159FF001249FE00DF11D069F47
:100B3200E00DF11D349FF00D259FF00D169FF00D75
:100B4200079FF00D3327149FB00DE11DF31F059F82
:0C0B5200B00DE11DF31F8D019F010895FF
:100D4A00C9019A01AB01B801A1E21A2EAA1BBB1B69
:100D5A00FD010DC0AA1FBB1FEE1FFF1FA217B3077D
:100D6A00E407F50720F0A20BB30BE40BF50B661FA3
:100D7A00771F881F991F1A9469F760957095809557
:040D8A0090950895A3
:100D8E009801249F8001259F100D349F100D08950A
:000D9E0055
:1017FE00CF93DF93CDB7DEB72297CDBFDEBF219655
:10180E002F923F924F925F92B0E0B88329E01EE193
:10181E0005EE0A95F1F71A95E1F72A95D1F7000032
:10182E00B4E62B2EB0E03B2E1CDE0983B9B1B1FF1E
:10183E001FC0B9B1B0FD1CC008810530C8F425E148
:10184E001BE40FEB0A95F1F71A95E1F72A95D1F7FC
:10185E000000B9B1B1FD04C0B6EEB983B8ECB883DF
:10186E0005B0B0E20B2605B808810F5F0883DECF06
:10187E00B9B1B0FF1FC0B9B1B1FD1CC008810530B0
:10188E00C8F425E11BE40FEB0A95F1F71A95E1F781
:10189E002A95D1F70000B9B1B0FD04C0B0E0B9830C
:1018AE00B8ECB88305B0B0E20B2605B808810F5F1F
:1018BE000883DECFB5B1B062B5B909810F3F48F4E8
:1018CE0009810F5F402EB4E62B2EB0E03B2E1ADFBF
:1018DE0016C0B1E02B2E1DD0B8EA4B2EB2E05B2E17
:1018EE00B1E03B2EB1E02B2E3CDFB3EC4B2EB2E041
:1018FE005B2EB1E03B2EB2E02B2E33DFFFCF5F909D
:10190E004F903F902F902196CDBFDEBFDF91CF91AC
:02191E0008952A
:101166002F92B9B1B1FDB2C0B0E0B093D402B9B11B
:10117600B1FD0AC00091A702002331F40091D40208
:101186000E3310F411E001C010E0B9B1B1FD06C094
:101196000091D402053010F401E001C000E0012BFB
:1011A60009F0E5CFB9B1B1FD0AC00091A70200234D
:1011B60031F40091D4020E3310F011E001C010E0BA
:1011C600B9B1B1FD0AC00091D402053030F00091EA
:1011D600A702002311F001E001C000E0012B09F491
:1011E60075C0B0E0B093A602009134020F3F09F437
:1011F6005BC0B8EEB093A202B3E0B093A302B0E036
:10120600B093A402B093A502B9B1B1FD0EC000918E
:10121600A2021091A3022091A4023091A502B02F40
:10122600B12BB22BB32B09F0EFCF0091A202109194
:10123600A3022091A4023091A502B02FB12BB22BAC
:10124600B32B59F0009134020F5F009334020E3F26
:1012560018F0B0E0B09334027FDCB9B1B1FD23C021
:101266000091A2021091A3022091A4023091A5023E
:10127600B02FB12BB22BB32BB1F400913402065F21
:10128600009334020E3F18F0B0E0B093340264DCF1
:1012960025E11BE40FEB0A95F1F71A95E1F72A957C
:1012A600D1F70000DACF12C00091A7020F5F0093BA
:1012B600A70252DCB9B1B1FD09C00091A702013005
:1012C60029F4009134020F3F09F4F4CFB9B1B0FD0F
:1012D600BCC0009134020F3F09F0B7C00091A702CD
:1012E600002309F4B2C0B0E0B093D402B9B1B0FDA6
:1012F60005C00091D402053008F4F8CFB9B1B0FDAD
:1013060096C00091D402053008F491C00091A7025E
:10131600002309F48CC0B0E0B093A6020091A702A6
:10132600053019F42224E5DC82C00091A7020930B9
:1013360058F41091A7020AE0109F002D0093A7020F
:10134600E8E6F1E0099573C00091A7020A3021F49E
:10135600B1E02B2E2BDB6BC00091A7020B3021F4E2
:10136600B2E02B2E23DB63C00091A7020C3019F4E8
:101376002224BFDC5CC00091A702043121F4B4E151
:101386002B2E14DB54C00091A702053121F4B5E1E0
:101396002B2E0CDB4CC00091A702063121F4B6E1DE
:1013A6002B2E04DB44C00091A702073119F4222436
:1013B600A0DC3DC00091A7020E3121F4BEE12B2E28
:1013C600F5DA35C00091A7020F3121F4BFE12B2ECB
:1013D600EDDA2DC00091A702003221F4B0E22B2EE7
:1013E600E5DA25C00091A702013221F4B3E22B2EE3
:1013F600DDDA1DC00091A702023221F4B4E22B2EE1
:10140600D5DA15C00091A702033219F4222471DC43
:101416000EC00091A702083221F4B8E22B2EC6DADC
:1014260006C00091A702093211F4222462DCB9B188
:10143600B0FD01C0FCCF29E01EE105EE0A95F1F7EB
:101446001A95E1F72A95D1F70000B9B1B0FD0BC0A6
:101456000091A702002339F0009134020F3F19F0E2
:0A146600B1E02B2E46DC2F90089514
:100B5E002F920091A7020A3040F40091A7020630AE
:100B6E0020F0B1E0B093A70230C00091A70204318B
:100B7E0048F41091A7020CE0011720F4BAE0B093EC
:100B8E00A70223C00091A7020E3140F40091A702E4
:100B9E00083120F0B4E1B093A70217C00091A7026C
:100BAE00083240F40091A702043220F0BEE1B09367
:100BBE00A7020BC00091A702023338F40091A702DE
:100BCE000A3218F0B8E2B093A7027BDB0091340230
:100BDE000F3F79F00091A7020A3059F410913402B8
:100BEE0004E6011718F4B0E0B0933402B1E02B2EF6
:100BFE00AADD009134020F3F39F00091A7020B30AD
:100C0E0019F4B2E02B2E9FDD009134020F3FD9F084
:100C1E000091A7020931B8F40091A702043121F422
:100C2E00B4E12B2E90DD0FC00091A702053121F407
:100C3E00B5E12B2E88DD07C00091A702063119F40D
:100C4E00B6E12B2E80DD009134020F3F09F434C043
:100C5E000091A702033208F02FC00091A7020E31B7
:100C6E0021F4BEE12B2E6FDD27C00091A7020F31BC
:100C7E0021F4BFE12B2E67DD1FC00091A7020032C9
:100C8E0021F4B0E22B2E5FDD17C00091A7020132D6
:100C9E0061F41091340204E6011718F4B0E0B09339
:100CAE003402B3E22B2E4FDD07C00091A7020232B1
:100CBE0019F4B4E22B2E47DD009134020F3F99F068
:100CCE000091A7020D3278F40091A702083259F470
:100CDE001091340201E0011718F4B0E0B093340221
:0A0CEE00B8E22B2E30DD2F900895A0
:1002D0002F923F924F925F920091A702003091F4CB
:1002E000B1E02B2EE0E9FCE00995B9E04B2EB1E03E
:1002F0003B2EB1E02B2EE8E4F1E10995E2EFFCE0C2
:10030000099523C20091A702063008F05BC0B1E056
:100310002B2EE0E9FCE009954424B1E03B2EB1E04E
:100320002B2EE8E4F1E109950091A702013061F478
:10033000B9EB4B2EB2E05B2EB1E03B2EB2E02B2EA0
:10034000E8EBFBE009953DC00091A702023061F4A3
:10035000B6E44B2EB2E05B2EB1E03B2EB2E02B2E8A
:10036000E8EBFBE009952DC00091A702033061F492
:10037000B9E74B2EB2E05B2EB1E03B2EB2E02B2E64
:10038000E8EBFBE009951DC00091A702043061F481
:10039000B8E64B2EB2E05B2EB1E03B2EB2E02B2E46
:1003A000E8EBFBE009950DC00091A702053049F488
:1003B000BAE04B2EB1E03B2EB2E02B2EE8E4F1E1A7
:1003C0000995C3C10091A7020A30C1F4B1E02B2EF8
:1003D000E0E9FCE00995B3E04B2EB1E03B2EB1E043
:1003E0002B2EE8E4F1E10995B7E04B2EB1E03B2E6E
:1003F000B2E02B2EE8E4F1E10995A7C10091A70234
:100400000B30C1F4B1E02B2EE0E9FCE00995B3E03C
:100410004B2EB1E03B2EB1E02B2EE8E4F1E1099543
:10042000B1E14B2EB1E03B2EB2E02B2EE8E4F1E13E
:1004300009958BC10091A7020C30C1F4B1E02B2EBD
:10044000E0E9FCE00995B3E04B2EB1E03B2EB1E0D2
:100450002B2EE8E4F1E10995BAE04B2EB1E03B2EFA
:10046000B2E02B2EE8E4F1E109956FC10091A702FB
:100470000D30C1F4B1E02B2EE0E9FCE00995B3E0CA
:100480004B2EB1E03B2EB1E02B2EE8E4F1E10995D3
:10049000B5E14B2EB1E03B2EB2E02B2EE8E4F1E1CA
:1004A000099553C10091A7020431C1F4B1E02B2E8C
:1004B000E0E9FCE00995B4E04B2EB1E03B2EB1E061
:1004C0002B2EE8E4F1E10995BBE04B2EB1E03B2E89
:1004D000B2E02B2EE8E4F1E1099537C10091A702C3
:1004E0000531C1F4B1E02B2EE0E9FCE00995B4E060
:1004F0004B2EB1E03B2EB1E02B2EE8E4F1E1099563
:10050000BCE04B2EB1E03B2EB2E02B2EE8E4F1E153
:1005100009951BC10091A7020631C1F4B1E02B2E51
:10052000E0E9FCE00995B4E04B2EB1E03B2EB1E0F0
:100530002B2EE8E4F1E10995B4E14B2EB1E03B2E1E
:10054000B2E02B2EE8E4F1E10995FFC00091A7028B
:100550000731C1F4B1E02B2EE0E9FCE00995B4E0ED
:100560004B2EB1E03B2EB1E02B2EE8E4F1E10995F2
:10057000BAE04B2EB1E03B2EB2E02B2EE8E4F1E1E5
:100580000995E3C00091A7020E31C1F4B1E02B2E12
:10059000E0E9FCE00995B5E04B2EB1E03B2EB1E07F
:1005A0002B2EE8E4F1E10995B1E04B2EB1E03B2EB2
:1005B000B2E02B2EE8E4F1E10995C7C00091A70253
:1005C0000F31C1F4B1E02B2EE0E9FCE00995B5E074
:1005D0004B2EB1E03B2EB1E02B2EE8E4F1E1099582
:1005E000B2E04B2EB1E03B2EB2E02B2EE8E4F1E17D
:1005F0000995ABC00091A7020032C1F4B1E02B2EE7
:10060000E0E9FCE00995B5E04B2EB1E03B2EB1E00E
:100610002B2EE8E4F1E10995B6E14B2EB1E03B2E3B
:10062000B2E02B2EE8E4F1E109958FC00091A7021A
:100630000132D1F4B1E02B2EE0E9FCE00995B5E000
:100640004B2EB1E03B2EB1E02B2EE8E4F1E1099511
:10065000B7E54B2EB2E05B2EB1E03B2EB2E02B2E85
:10066000E8EBFBE0099571C00091A7020232D1F4DA
:10067000B1E02B2EE0E9FCE00995B5E04B2EB1E0AE
:100680003B2EB1E02B2EE8E4F1E10995B2E94B2EC7
:10069000B2E05B2EB1E03B2EB2E02B2EE8EBFBE0AC
:1006A000099553C00091A7020332C1F4B1E02B2E8B
:1006B000E0E9FCE00995B5E04B2EB1E03B2EB1E05E
:1006C0002B2EE8E4F1E10995BAE04B2EB1E03B2E88
:1006D000B2E02B2EE8E4F1E1099537C00091A702C2
:1006E0000832C1F4B1E02B2EE0E9FCE00995B6E058
:1006F0004B2EB1E03B2EB1E02B2EE8E4F1E1099561
:10070000B5E14B2EB1E03B2EB2E02B2EE8E4F1E157
:1007100009951BC00091A7020932B9F4B1E02B2E54
:10072000E0E9FCE00995B6E04B2EB1E03B2EB1E0EC
:100730002B2EE8E4F1E10995BAE04B2EB1E03B2E17
:10074000B2E02B2EE8E4F1E109955F904F903F90E5
:040750002F90089549
:10075400CF93DF93CDB7DEB72F97CDBFDEBF219602
:100764002F923F924F925F92B0E22B1639F52F925F
:10077400B5E02B2E69D300938E0210938F02B0E064
:10078400B0939002B093910200918E0210918F0267
:100794002091900230919102012F122F232F30E0EB
:1007A400402EB1E22B2EB0E03B2EB1D740908E020A
:1007B400B2E22B2EB0E03B2EAAD72F90B2E22B163A
:1007C40039F52F92B4E02B2E3FD300938A02109375
:1007D4008B02B0E0B0938C02B0938D0200918A0238
:1007E40010918B0220918C0230918D02012F122FD7
:1007F400232F30E0402EB5E22B2EB0E03B2E87D7DE
:1008040040908A02B6E22B2EB0E03B2E80D72F9088
:100814002F92D9DC8E01280120908E0230908F0215
:1008240016D3B5E34B2EB2E05B2EB1E03B2EB1E024
:100834002B2E9CD78E011801E9D02801B1E03B2E64
:10084400B1E02B2E93D78E01280120903402B0E022
:100854003B2EFDD2BBE24B2EB2E05B2EB9E03B2E29
:10086400B1E02B2E83D78E011801D0D02801B9E036
:100874003B2EB1E02B2E7AD7B4E12B2E4FDC2F90F8
:10088400022D40903402202EB0E03B2E40D75F90E2
:100894004F903F902F902E96CDBFDEBFDF91CF912A
:0208A4000895B5
:1001CA00CF93DF93CDB7DEB72497CDBFDEBF21969D
:1001DA002F923F924F925F928E01302E412E2090A5
:1001EA0034025ADF8E012801BEE03B2EB2E02B2EEC
:1001FA00E8EBFBE009955F904F903F902F90239694
:0A020A00CDBFDEBFDF91CF91089554
:1000A200CF93DF93CDB7DEB72297CDBFDEBF2196C8
:1000B20010E0133050F4E12FF0E0E30DF41DB0E254
:1000C200B083012F0F5F102FF4CFE12FF0E0E30D8B
:1000D200F41DB0E0B083012F0150302F032F10E048
:1000E200030D141D088319834AE0022DCDDF092F69
:1000F200202F205D08811981F80120834AE0022D1A
:10010200C3DF202E003009F404C0032F0150302F2A
:0E011200E5CF2196CDBFDEBFDF91CF910895DE
:10008A00992779E004C0991F941708F0941B001F60
:08009A007A95C9F7009508955D
:10012000B4E0B093B100BFB7B068BFBFB09170008A
:10013000B160B093700004E6209E80010093A2029B
:100140001093A302B0E017FDBFEFB093A402B093E9
:10015000A5024091A2025091A3026091A402709165
:10016000A50200E010E020E030E0041715072607A4
:08017000370708F4EECF0895F3
:100CF800B0E0B093A602222071F40091A7020A3056
:100D080020F4B0E0B093A70206C00091A7024AE021
:100D1800B8D90093A702BFEFB0933402D5DAB9B1BE
:100D2800B0FD01C0FCCF29E01EE105EE0A95F1F700
:100D38001A95E1F72A95D1F70000B8ECB093D402E0
:020D480008950C
:1009B2002F923F924F92022D2F92202EB0E03B2E8B
:1009C20056D52F90009334020F3FE0F0B0E0B09381
:1009D200340225E01FE002EF0A95F1F71A95E1F7DC
:1009E2002A95D1F7022D40903402202EB0E03B2E02
:1009F2008FD625E01FE002EF0A95F1F71A95E1F78D
:0E0A02002A95D1F7E1DB4F903F902F90089599
:100F1200CF93DF93CDB7DEB72597CDBFDEBF219646
:100F22002F923F924F925F922F925BD52F90102F6C
:100F3200002321F4B3E02B1609F403C0222009F0A8
:100F42001AC0B5B1B860B5B9B5B1BF7EB5B9009137
:100F52003A01002349F0B0913201B1FD05C01F935F
:100F62002F9276DD2F901F91BFEFB0933901BFEF23
:100F7200B093340111C0113039F4BFEFB09339018D
:100F8200B5B1B860B5B908C0123031F4BFEFB09353
:100F92003401B5B1BF7EB5B9112351F0113041F022
:100FA20000913901002321F4B3E02B1609F404C0A7
:100FB200B1E02B1609F027C01F93B5E12B2EB0E04C
:100FC2003B2E55D2B5B1BF7EB5B9202EA8D8B5B14A
:100FD200B77FB5B9BFEFB0933901B0913201BD7F90
:100FE200B0933201BBE02B2EB0E03B2E40D21F91DA
:100FF200009333010F3F19F4B8E7B09333011F9305
:10100200FDD31F913BC0112351F0123041F00091EA
:101012003401002321F4B3E02B1609F404C0B2E03A
:101022002B1609F01BC01F93B5E12B2EB0E03B2E0F
:101032001ED2B5B1B860B5B9202E71D81F91B5B125
:10104200B061B5B9B0913201BD7FB0933201BFEF4B
:10105200B0933401BFEFB093330110C0B5B1B4FD0A
:101062000DC0009133010F3F49F41F93BBE02B2EBB
:10107200B0E03B2EFCD11F9100933301112399F074
:10108200113089F0009139010F3F69F4B5B1B3FF16
:101092000AC01F93B4E12B2EB0E03B2EE8D11F9182
:1010A200009339010CC0113019F0112309F007C067
:1010B200009139010F3F19F0BFEFB09339011130A0
:1010C20091F4009134010F3F71F4B5B1B3FF0BC03D
:1010D200B5B1B4FD08C0B6E12B2EB0E03B2EC7D1AE
:1010E200009334010CC0123019F0112309F007C02B
:1010F200009134010F3F19F0BFEFB093340110910A
:10110200330105E00117D0F0B0E14B2EB1E03B2EE8
:10111200B2E02B2EE8E4F1E109958E01302E412E4A
:1011220020903301E1E5F0E009958E0118016FDCB2
:101132002801B0E13B2EB2E02B2E19D300913301EE
:10114200002331F4B5B1BB7FB5B9BFEFB093330122
:101152005F904F903F902F902496CDBFDEBFDF91DE
:04116200CF9108958C
:100A5200CF93DF93CDB7DEB72197CDBFDEBF21960F
:100A62002F92B3E0B883B5E02B2EEFD100938E0224
:100A720010938F02B0E0B0939002B0939102009174
:100A82008E0210918F0220919002309191023030AB
:100A920029F4203019F4103009F4083CF8F40881E4
:100AA2000023E1F0FFDE0023C9F4B9B1B0FD03C0B9
:100AB200B0E0B88312C0088101500883B8E02B2E41
:100AC2005ADBB5E02B2EC1D100938E0210938F0218
:100AD200B0E0B0939002B0939102D1CFB9B1B0FD22
:100AE20004C0B5B1B062B5B9F9CF0881002379F479
:100AF200B5B1BB7FB5B9B0913201B260B0933201EA
:100B0200BFEFB0933301BAE02B2E09DB03C0BFEF76
:100B1200B09333012F90CDBFDEBFDF91CF91089507
:000B2200D3
:1008A600CF93DF93CDB7DEB72197CDBFDEBF2196BD
:1008B6002F923F924F92B1E02B2EB0E03B2ED5D532
:1008C6000883B9B1B0FD01C069C0B4E0B09331018D
:1008D600B9E04B2EB1E03B2EB1E02B2EE8E4F1E17E
:1008E6000995BFE04B2EB1E03B2EB2E02B2EE8E49B
:1008F600F1E10995B5B1B460B5B9B5B1B260B5B9B4
:1009060028800BDCB5B1BD7FB5B9B5E02B2E31DC47
:10091600B5E02B2E98D200938E0210938F02B0E092
:10092600B0939002B093910200918E0210918F02C3
:100936002091900230919102303029F4203019F440
:10094600103009F4083CB8F4B5B1BD7FB5B9B5B1FE
:10095600B460B5B9B2E14B2EB1E03B2EB2E02B2E1E
:10096600E8E4F1E10995B0E0B093D402B3E0B093C6
:10097600310100E013C0BEE04B2EB1E03B2EB1E0EA
:100986002B2EE8E4F1E10995B2E02B2EF2DBE2EF43
:10099600FCE00995B5E0B09331010FEF4F903F9021
:0C09A6002F90CDBFDEBFDF91CF910895F0
:10017800B0E0B093D402BFB7B068BFBF00E00215CB
:1001880058F40091D4020E3130F0022D0150202E87
:0A019800B0E0B093D402F2CF089556
:0E14BC00EC2FFD2F05900D920197E1F708959A
:102DEE00A0E0B1E0C2E7DAE285ED91E006E00F93F4
:102DFE0007E10F930EE50F930AE00F9308950895E0
:102A4A000F93BF93BFB7BF930091D4020F5F009358
:102A5A00D402009174010F3100F0BF91BFBFBF9142
:082A6A000F91FF91EF91189507
:1022FC000F920F931F932F933F934F935F936F9373
:10230C007F93BF93BFB7BF93B3E8B093B200009174
:10231C007501109176012091770130917801A80117
:10232C00B9014F5F5F4F6F4F7F4F409375015093D3
:10233C007601609377017093780100917001109190
:10234C00710120917201309173010F5F1F4F2F4F5C
:10235C003F4F0093700110937101209372013093E1
:10236C007301703029F4603019F4533009F4483E8D
:10237C0008F457C0009174010F5F00937401B5B15C
:10238C00B2FF05C005B0B0E20B2605B803C0B5B16D
:10239C00BF7DB5B900916E01069500932C01B0E09C
:1023AC00B0936E010091A6020F5F0093A6020091FC
:1023BC0007010F5F009307010B3018F0B0E0B093EA
:1023CC00070100913901002349F0009139010F3FB9
:1023DC0029F0009139010150009339010091340129
:1023EC00002349F0009134010F3F29F00091340192
:1023FC0001500093340100913301002349F0009106
:10240C0033010F3F29F00091330101500093330148
:10241C00B0E0B0937501B0937601B0937701B093AF
:10242C0078010091A2021091A3022091A402309194
:10243C00A502B02FB12BB22BB32BA1F00091A202AD
:10244C001091A3022091A4023091A50201501040DA
:10245C00204030400093A2021093A3022093A402C8
:10246C003093A5020091040110910501133609F473
:10247C000C3989F00091040110910501B02FB12B9A
:10248C0051F000910401109105010150104000938E
:10249C000401109305010091E4011091E50113363C
:1024AC0009F40C3989F00091E4011091E501B02F89
:1024BC00B12B51F00091E4011091E5010150104055
:1024CC000093E4011093E501BF91BFBFBF917F91D1
:1024DC006F915F914F913F912F911F910F910F90A1
:0624EC00FF91EF9118952D
:1024F6000F921F920F931F932F933F934F935F93C8
:102506006F937F93BF93BFB7BF9316B000906F01D1
:1025160000FA10FC02C016F402C0F6F72AC00091B9
:102526006E010F5F00936E0106B100936F0100917B
:102536007001109171012091720130917301303058
:1025460029F4203019F4103009F40B3090F0409142
:1025560070015091710160917201709173010FE0E9
:1025660010E020E030E0041715072607370708F0CB
:1025760000C016B000906F0101FA11FC02C016F4FB
:1025860002C0F6F725C006B100936F0100917001F5
:10259600109171012091720130917301303029F44C
:1025A600203019F4103009F4053090F04091700194
:1025B60050917101609172017091730108E010E011
:1025C60020E030E0041715072607370708F000C09B
:1025D600BF91BFBFBF917F916F915F914F913F9127
:1025E6002F911F910F911F900F90FF91EF911895CA
:0025F600E5
:102D2400205F5F504152414D4554545245535F5FBB
:012D3400009E
:102D8A00536575696C206261732020202020200021
:102D9A00536575696C2068617574202020202000B5
:102DBA0020205F5F44454D4152524555525F5F00A6
:102D350020205F5F494E564552534555525F5F20EF
:012D4500008D
:102D020020205F5F5F54454E53494F4E5F5F5F2007
:012D120000C0
:102D13002020205F5F5048415345535F5F202020B0
:012D230000AF
:102D460044656C61792064656D6172726575722087
:012D5600007C
:102DAA0020494E495449414C49534154494F4E00D8
:102D68004841474E414E4420494E445553545259C8
:012D7800005A
:102D57003C3C205265746F75722020202020202073
:012D6700006B
:102D790044656C61792073656374657572202020E0
:012D89000049
:102C7A00506F696E74207A65726F202020202020A0
:012C8A000049
:102C8B0020536563746575722020202D2D487A20A2
:012C9B000038
:102C69002047726F757020656E206D6172636865AB
:012C7900005A
:102C470044656D6172726167652E2E2E2E2E2E2EB3
:012C5700007C
:102C5800417272657420656E20636F75722E2E2E18
:012C6800006B
:102C9C0044656C617920617272657420202020205B
:012CAC000027
:102CE0002045636865632064656D61727261676524
:012CF00000E3
:102CF100202020504F494E54205A45524F20202029
:012D010000D1
:102CCF0044656C61792067726F75706520202020D4
:012CDF0000F4
:102CAD0041637469766174696F6E20202020202045
:012CBD000016
:102CBE0043616C69627261676520202020202020AC
:012CCE000005
:0A2DD400534543544F52204F4E0068
:0A2DCA002047524F5550204F4E0095
:082DE6004155544F202020004C
:082DDE004D414E55454C20000B
:022A72003E0024
:022A74003E0022
:022A760000005E
:012A7800005D
:012A7900005C
:0D2A7A0047524F55503A20565F2020200053
:052A87002020202000CA
:062A8C00203030487A0002
:0C2A9200534543543A20565F202020009A
:012A9E000037
:042A9F000000000033
:012AA3000032
:012AA4000031
:012AA500FF31
:012AA600002F
:042AA700000000002B
:012AAB00002A
:012AAC00FF2A
:102AAD002020204D4F4445204D414E55454C202072
:012ABD000018
:102ABE002020205355522053454354455552202033
:012ACE000007
:102ACF00202020204D4F4445204155544F20202099
:012ADF0000F6
:012AE00000F5
:012AE10000F4
:042AE20000000000F0
:012AE60000EF
:042AE70000000000EB
:102AEB002020205355522053454354455552202006
:012AFB0000DA
:022AFC002E00AA
:102AFE00202020204D4F4445204155544F2020206A
:012B0E0000C6
:102B0F00242D8A2D9A2DBA2D352D022D132D462DBC
:102B1F00AA2D682D572D792D7A2C8B2C692C472CAB
:102B2F00582C9C2CE02CF12CCF2CAD2CBE2CD42D62
:062B3F00CA2DE62DDE2D7B
:102B4500444546415554203E3E202020202020204B
:012B5500007F
:022B560000007D
:102B58002020205355522047524F555045202020C1
:012B6800006C
:102B6900202020504F494E54205A45524F202020B2
:012B7900005B
:102B7A00202020504F494E54205A45524F202020A1
:012B8A00004A
:102B8B002020204D4F4445204D414E55454C202093
:012B9B000039
:012B9C000038
:092B9D00202020202056202000F9
:012BA600FF2F
:102BA7002020202020202F2020202020202020200F
:012BB700001D
:102BB800496E76657274696F6E206175746F202036
:012BC800000C
:102BC90044656C61792064656661757420202020F4
:012BD90000FB
:102BDA004F726472652064657320706861736573EF
:012BEA0000EA
:102BEB00536575696C2064652074656E73696F6ECF
:012BFB0000D9
:042BFC0000000000D5
:042C000000000000D0
:102C040043616C6962207365637420202020200076
:042C140000000000BC
:012C180000BB
:012C190000BA
:102C1A00204552524555522053595354454D45214A
:012C2A0000A9
:0A2C2B0044656D61727265757200F8
:102C35005F5F5F5F5F5F5F5F5F5F5F5F5F5F5F5F9F
:012C4500008E
:012C4600008D
:00000001FF
